{
  "transactions": [
    {
      "hash": "0xa7f1453904d6269c6f0b92ec15d0a7b97d8deb8f8572afd489814304ccd64c1f",
      "transactionType": "CALL",
      "contractName": null,
      "contractAddress": "0xdc22b5ae1cfa008d71749fb9a30c83706ad306dd",
      "function": "mint(bytes,uint256,address)",
      "arguments": [
        "0x918be91e9592a2a6279dbb921ac315d60717fc6d0d5dccf1757cf1ee3703a2c56a1b849fc038350060d1c1f933e923ae4224f673803ac4a23419116f549d8ebf1c",
        "90000000000000000000",
        "0x590A1ADd90cbC6a0B53346b2CF8a78ebdaC24f02"
      ],
      "transaction": {
        "from": "0xf047623317276fcde0b34b5b1146d7eca20d15c0",
        "to": "0xdc22b5ae1cfa008d71749fb9a30c83706ad306dd",
        "gas": "0x1d7a5",
        "value": "0x0",
        "input": "0x347d6c780000000000000000000000000000000000000000000000000000000000000060000000000000000000000000000000000000000000000004e1003b28d9280000000000000000000000000000590a1add90cbc6a0b53346b2cf8a78ebdac24f020000000000000000000000000000000000000000000000000000000000000041918be91e9592a2a6279dbb921ac315d60717fc6d0d5dccf1757cf1ee3703a2c56a1b849fc038350060d1c1f933e923ae4224f673803ac4a23419116f549d8ebf1c00000000000000000000000000000000000000000000000000000000000000",
        "nonce": "0x3",
        "chainId": "0xaa36a7"
      },
      "additionalContracts": [],
      "isFixedGasLimit": false
    }
  ],
  "receipts": [
    {
      "status": "0x1",
      "cumulativeGasUsed": "0x901126",
      "logs": [
        {
          "address": "0xdc22b5ae1cfa008d71749fb9a30c83706ad306dd",
          "topics": [
            "0xef5eff7c9be9766c69844770034357649f917b2cf6766d70d7a773b4f9157aed",
            "0x000000000000000000000000590a1add90cbc6a0b53346b2cf8a78ebdac24f02"
          ],
          "data": "0x0000000000000000000000000000000000000000000000000000000000000060000000000000000000000000000000000000000000000004e1003b28d9280000000000000000000000000000f047623317276fcde0b34b5b1146d7eca20d15c00000000000000000000000000000000000000000000000000000000000000041918be91e9592a2a6279dbb921ac315d60717fc6d0d5dccf1757cf1ee3703a2c56a1b849fc038350060d1c1f933e923ae4224f673803ac4a23419116f549d8ebf1c00000000000000000000000000000000000000000000000000000000000000",
          "blockHash": "0x4078119b4942f51aaa66b17080fbb2965b1c53e06c9914efdd42e23cc1e1a5d9",
          "blockNumber": "0x60cee5",
          "transactionHash": "0xa7f1453904d6269c6f0b92ec15d0a7b97d8deb8f8572afd489814304ccd64c1f",
          "transactionIndex": "0x69",
          "logIndex": "0x7c",
          "removed": false
        },
        {
          "address": "0xf583c7ecc6332379f4a458bde66aef41c2700540",
          "topics": [
            "0xddf252ad1be2c89b69c2b068fc378daa952ba7f163c4a11628f55a4df523b3ef",
            "0x0000000000000000000000000000000000000000000000000000000000000000",
            "0x000000000000000000000000590a1add90cbc6a0b53346b2cf8a78ebdac24f02"
          ],
          "data": "0x000000000000000000000000000000000000000000000004e1003b28d9280000",
          "blockHash": "0x4078119b4942f51aaa66b17080fbb2965b1c53e06c9914efdd42e23cc1e1a5d9",
          "blockNumber": "0x60cee5",
          "transactionHash": "0xa7f1453904d6269c6f0b92ec15d0a7b97d8deb8f8572afd489814304ccd64c1f",
          "transactionIndex": "0x69",
          "logIndex": "0x7d",
          "removed": false
        }
      ],
      "logsBloom": "0x80000000000000000000000000000000000000000000000000000000000000000000000002000000000000000000000002080000000000000000000000000000000000000000000004000008000000000000000000000000000000000000000000000000020000000000010000000800000000000000000000000010000000000000000000000000000000000080000000000000000000000000001000000000000000000000000000000000000000000000000000000000000200000400000000000002200000000000000000000000000000000000000000000000000020000000000000002000000000000000000000000000000000000000000000000000",
      "type": "0x0",
      "transactionHash": "0xa7f1453904d6269c6f0b92ec15d0a7b97d8deb8f8572afd489814304ccd64c1f",
      "transactionIndex": "0x69",
      "blockHash": "0x4078119b4942f51aaa66b17080fbb2965b1c53e06c9914efdd42e23cc1e1a5d9",
      "blockNumber": "0x60cee5",
      "gasUsed": "0x15577",
      "effectiveGasPrice": "0xb47762c7",
      "from": "0xf047623317276fcde0b34b5b1146d7eca20d15c0",
      "to": "0xdc22b5ae1cfa008d71749fb9a30c83706ad306dd",
      "contractAddress": null
    }
  ],
  "libraries": [],
  "pending": [],
  "returns": {},
  "timestamp": 1721473035,
  "chain": 11155111,
  "commit": "553c9b7"
}